:020000040800F2
:10000000580400209D010008A10F00089D0F000862
:100010009F0F0008A10400086511000800000000FF
:10002000000000000000000000000000A50F000814
:10003000A304000800000000A30F0008A70F000899
:10004000B7010008B7010008B7010008B7010008B0
:10005000B7010008B7010008B7010008B7010008A0
:10006000B7010008B7010008B7010008B701000890
:10007000B7010008B7010008B7010008B701000880
:10008000B7010008B7010008B7010008B701000870
:10009000B7010008B7010008B7010008B701000860
:1000A000B7010008B7010008B7010008B701000850
:1000B000B7010008B7010008B7010008B701000840
:1000C000B7010008B7010008B7010008B701000830
:1000D000B7010008B7010008B7010008B701000820
:1000E000B7010008B7010008B7010008B701000810
:1000F000B7010008B7010008B7010008B701000800
:10010000B7010008B7010008B7010008B7010008EF
:10011000B7010008B7010008B7010008B7010008DF
:10012000B7010008B7010008B7010008B7010008CF
:10013000B7010008B7010008B7010008B7010008BF
:10014000B7010008B7010008B7010008B7010008AF
:10015000B7010008B7010008B7010008B70100089F
:10016000B7010008B7010008B7010008B70100088F
:10017000B7010008B7010008B7010008000000003F
:10018000B7010008B7010008DFF80CD000F076F9DD
:100190000048004709150008580400200648804719
:1001A00006480047FEE7FEE7FEE7FEE7FEE7FEE75C
:1001B000FEE7FEE7FEE7FEE7AD0F00088901000855
:1001C0002DE9F05F0546002092469B46884606468C
:1001D000814640241BE0284641464746224600F01F
:1001E000E0F853465A46C01A914110D311461846BA
:1001F000224600F0C7F82D1A67EB01084F46224649
:100200000120002100F0BEF817EB00094E41201E2E
:10021000A4F10104DFDC484631462A464346BDE8E6
:10022000F09FD2B201E000F8012B491EFBD27047CB
:100230000022F6E710B513460A4604461946FFF7B2
:10024000F0FF204610BD2DE9F04D81EA030404F0D3
:10025000004B21F0004514464FF0000A23F0004106
:1002600050EA050220D054EA01021DD0C5F30A5716
:100270000246C5F31303C1F31300C1F30A5640F459
:10028000801543F48013A7EB0608101BD64608F22E
:10029000FD3873EB050002D308F1010801E0921864
:1002A0005B41B8F1000F03DA00200146BDE8F08D94
:1002B00000204FF48011064684460EE0171B73EBB6
:1002C000050705D3121B63EB050306434CEA010C3B
:1002D00049084FEA300092185B4150EA0107EDD11E
:1002E00052EA030012D082EA040083EA05010843BF
:1002F00005D0101BAB4106D20122002306E00022EC
:100300004FF0004302E06FF0010253101AEB0600B9
:100310004CEB085110EB0A0041EB0B01BDE8F04D2E
:1003200000F04FB80EB5C10F80EAE0700844CA076C
:10033000002140F233438DE80E000A460B4600F0E0
:100340004FF803B000BD70B5C1F30A5201F000458B
:100350000024C1F3130140F2FF3341F480119A42AB
:1003600001DA002070BD40F233439A42A2F23342D8
:1003700003DC524200F015F800E090402C43F1D02D
:10038000404270BD202A04DB203A00FA02F100202E
:1003900070479140C2F1200320FA03F319439040C3
:1003A0007047202A04DB203A21FA02F0002170472E
:1003B00021FA02F3D040C2F12002914008431946CD
:1003C000704710B5141E73F1000408DA401C41F1A7
:1003D000000192185B411A4301D120F0010010BDC9
:1003E0002DE9F04D92469B4611B1B1FA81F202E03F
:1003F000B0FA80F220329046FFF7C4FF04460F4661
:1004000040EA0A0041EA0B0153465A46084313D01A
:10041000114653EA010019D0C8F140025046FFF7D7
:10042000C0FF05460E46504659464246FFF7AAFF12
:10043000084305D0012004E020463946BDE8F08D90
:100440000020054346EAE0762C4337430A986305CB
:10045000E40AA0EB08000022FD0A44EA47540A30EF
:1004600002D500200146E9E7010510196941DDE9DF
:10047000084500196941BDE8F04DA2E7064C074D5B
:1004800006E0E06840F0010394E807009847103464
:10049000AC42F6D3FFF77CFEA8150008C81500088B
:1004A000FEE7704770B5044600F0F2F80546601CA0
:1004B00002D004480078044400F0EAF8401BA0424F
:1004C000FAD370BD040000202DE9F84FDFF87CB1AD
:1004D00000224FF001084FF0030A4FF00F090BF113
:1004E000040E00BF0B6808FA02F42340A3426ED149
:1004F0004D68022D01D0122D0ED1D50800EB850CD0
:10050000DCF820505607F70E09FA07F6B5430E69D6
:10051000BE402E43CCF82060066855000F790AFAD9
:1005200005FC07F0030726EA0C06AF4037430760D7
:100530004E68012E05D0022E03D0112E01D0122EAE
:100540000ED18668CF6826EA0C06AF403743876035
:100550004668A6430C79C4F30014944034434460C5
:10056000C6688C6826EA0C06AC403443C4604C680C
:10057000E40065D5364C256845F48045256024683F
:1005800022F0030504F480440094324C2E19D6F86E
:10059000084895072F0F09FA07F5AC432E4DA842DE
:1005A00001D1002524E02D4DA84201D101251FE0F5
:1005B0002B4DA84201D102251AE02A4DA84201D1B3
:1005C000032515E0284DA84202D1042510E037E0AC
:1005D000264DA84201D105250AE0254DA84201D1AA
:1005E000062505E0234DA84201D1072500E0082596
:1005F000BD402543C6F80858DBF800405D464E680C
:100600009C43F60300D51C432C60DEF80040754681
:100610004E689C43B60300D51C432C600B4D083537
:100620002C684E689C43F60200D51C432C60074D95
:100630000C352C684E689C43B60200D51C432C60D8
:10064000521C102AFFF44EAFBDE8F88F003C014069
:1006500044380240003001400000024000040240E3
:1006600000080240000C024000100240001402404A
:1006700000180240001C0240426931EA020200D127
:100680000904816170470AB1816170470904FBE781
:10069000014880687047000004000020024881681B
:1006A0000278114481607047040000200B4810B5A7
:1006B000016841F400710160016841F480610160EA
:1006C000016841F480710160032000F061F80020AE
:1006D00000F006F800F024F8002010BD003C0240B5
:1006E00070B50D4D04464FF47A712878B1FBF0F0E7
:1006F0000A490968B1FBF0F000F0B4FA48B9102CCF
:1007000007D200222146501E00F022F800206C6023
:1007100070BD012070BD000004000020100000200A
:100720000A4808B5016841F480410160006800F49E
:10073000804000900548001F016841F08051016031
:10074000006800F08050009008BD0000443802406E
:10075000F0B40E4B1B680C46C3F30223C3F107052C
:10076000042D00D90425191D072901D2002300E01A
:10077000DB1E012606FA05F1491E214099409E40E4
:10078000761E16403143F0BC00F04FBE0CED00E089
:10079000064900F0070208684FF6FF03184040EAD8
:1007A0000220034A10430860704700000CED00E08F
:1007B0000000FA052DE9F0470E46050065D0DFF888
:1007C0001481D8F80000F7B200F00F00B04207D251
:1007D00088F80070D8F8000000F00F00B04254D143
:1007E00028683D4C810712D5400703D5206840F4A6
:1007F000E05020602878000703D5206840F460406E
:1008000020602068A96820F0F00008432060287864
:10081000C0072DD0304968680839012812D0022855
:1008200013D0032811D00968890700292DDA21681F
:1008300021F0030101432160FFF72AFF814641F2C5
:10084000883A0EE009688903EFE709688901ECE757
:10085000FFF71EFFA0EB0901514502D90320BDE8B7
:10086000F0872068696800F00C00B0EB810FEFD1D1
:10087000D8F80010404601F00F01B14207D90770C7
:10088000006800F00F00B04201D00120E7E72878AF
:10089000400705D52068E96820F4E050084320604F
:1008A0002878000706D52068296920F4604040EACE
:1008B000C100206000F016F82168084AC1F3031156
:1008C000515CC840064908600020FFF709FF00207E
:1008D000C5E70000003C02400838024098150008B7
:1008E00010000020154810B5006810F00C021448E4
:1008F00013D01449042A0FD0082A0ED10F4C241FFC
:100900002268236802F03F025B0207D52068C0F32B
:100910008810A0FB010106E0084610BD2168C1F364
:100920008811A1FB00010023FFF74AFC2168C1F3F5
:100930000141491C4900B0FBF1F010BD08380240EC
:100940000024F40040787D012DE9F84F050076D0B1
:100950002878DFF8F8B2BE4CC00749D0DBF80010A9
:100960005846C1F38101012908D00068C0F3810015
:1009700002280AD1201D0068400206D520688003A5
:1009800036D568680028E2D032E06868B0F5803F6C
:1009900010D0B0F5A02F206810D020F48030206057
:1009A000206820F4802020606868A0B1FFF770FE06
:1009B00006460CE0206840F48030F4E740F48020E4
:1009C0002060F7E7FFF764FE801B642873D8206877
:1009D0008003F7D50CE0FFF75BFE064605E000BF9D
:1009E000FFF756FE801B6428F0D820688003F7D4F8
:1009F0002878DFF8608280074FF000093ED5DBF8E9
:100A00000010584611F00C0F09D00068C0F38100A7
:100A100002280BD18D48001F0068400206D42068D0
:100A2000800715D5E868012809D111E0E868B8B158
:100A30000120C8F80000FFF72BFE064605E002E1A2
:100A4000FFF726FE801B0228C0D820688007F7D554
:100A50002068296920F0F80040EAC10020600DE01C
:100A6000C8F80090FFF714FE064604E0FFF710FEFA
:100A7000801B02281FD820688007F7D42878000739
:100A800022D5724E744869696C3671B101210160DA
:100A9000FFF7FEFD074604E0FFF7FAFDC01B022842
:100AA00009D830688007F7D50EE0C0F80090FFF74E
:100AB000EFFD074605E083E0FFF7EAFDC01B0228D3
:100AC0007ED830688007F7D42878400768D5DFF8EB
:100AD0007CA100270AF1380ADAF80000C0000BD424
:100AE000DAF8001041F08051CAF80010DAF800007E
:100AF000012700F080500090584E3068C00510D497
:100B0000306840F480703060FFF7C2FD009005E06F
:100B1000FFF7BEFD0099401A022851D83068C00581
:100B2000F6D54A4EA868683601280FD005283068E7
:100B300010D020F001003060306820F004003060F8
:100B4000A868B8B1FFF7A4FD00900FE0306840F04E
:100B50000100F4E740F004003060F7E7FFF798FD8C
:100B60000099411A41F28830814264D83068800788
:100B7000F4D50EE0FFF78CFD009007E0FFF788FD4D
:100B80000099411A41F28830814254D83068800778
:100B9000F4D42FB1DAF8001021F08051CAF8001017
:100BA000A869C0B3DBF80010C1F3810102294AD063
:100BB0000228484607D0C8F86000FFF769FD00E04A
:100BC00039E005463AE04746C8F86000FFF760FDA7
:100BD000064604E0FFF75CFD801B02282BD8206846
:100BE0008001F7D4D5E907010843A96A1C4A4908DE
:100BF00002EB01416A6A41EA8211084395F82C1020
:100C000040EA01611148001F016001203866FFF7CA
:100C10003FFD054605E014E0FFF73AFD401B0228C2
:100C200009D820688001F7D50BE000BFFFF730FD41
:100C3000401B022802D90320BDE8F88F20688001FC
:100C4000F4D40020F8E70120F6E70000083802405D
:100C50000038024000004742800E474200700040CA
:100C60000000FFFF10B5401EB0F1807F01D30120CE
:100C700010BD4FF0E02460610F21601700F0D5FB3C
:100C80000020A06107202061002010BD70B590F801
:100C90003C20012A19D0012400F83C4F0222427066
:100CA00050F83C3C5A689D6822F070060A68496812
:100CB000324325F0800529435A6050F83C2C91605E
:100CC000447000210170084670BD022070BD10B54F
:100CD000040003D094F83D0010B107E0012010BDDE
:100CE000002084F83C00204600F00CF8022084F834
:100CF0003D00211D206800F083F9012084F83D00AB
:100D0000002010BD08B50068B0F1804F08D105483B
:100D1000016841F001010160006800F001000090ED
:100D200008BD00004038024070B5044690F83C0011
:100D3000012817D0012584F83C50022084F83D009A
:100D40002068826822F0770222F47F42826008687D
:100D5000502830D00DDC20284DD005DC98B3102869
:100D60003BD148E0022070BD302844D0402834D127
:100D700039E0602828D0702806D0B0F5805F2CD0EC
:100D8000B0F5005F29D10AE0CB68D1E901212068E4
:100D900000F0A7F92068816841F0770109E0CB688D
:100DA000D1E90121206800F09CF92068816841F4B4
:100DB0008041816011E0CA684968206800F012FB38
:100DC0005021206807E016E0CA684968206800F0F2
:100DD0001AFB6021206800F0FDFA84F83D500020E5
:100DE00084F83C0070BDCA684968206800F0FAFACF
:100DF00040212068EFE7226801461046EBE700003B
:100E000010B586B0044614216846FFF711FA206831
:100E1000B0F1804F15D10C480021026842F0010268
:100E20000260006800F0010005900F200090022091
:100E3000CDE901010120CDE9031069460348FFF720
:100E400043FB06B010BD00003038024000000240F5
:100E500070B5044690F83C000D4601280DD00126DF
:100E600084F83C60022084F83D0042B1042A18D086
:100E7000082A2AD00C2A4DD139E0022070BD206802
:100E800000F01CFA2068816941F008018161206846
:100E9000816921F004018161206881692A69114317
:100EA00011E0206800F028F92068816941F40061B0
:100EB00081612068816921F4806181612068816994
:100EC0002A6941EA0221816124E0206800F026FAC3
:100ED0002068C16941F00801C1612068C16921F041
:100EE0000401C1612068C1692A69114311E02068C9
:100EF00000F048FA2068C16941F40061C1612068CE
:100F0000C16921F48061C1612068C1692A6941EA2F
:100F10000221C16184F83D60002084F83C0070BD6E
:100F200010B5040003D094F83D0010B107E0012093
:100F300010BD002084F83C00204600F00CF8022090
:100F400084F83D00211D206800F05AF8012084F843
:100F50003D00002010BD704710B504460068012216
:100F600000F0B2F80B492068884202D00A49884252
:100F700003D1416C41F4004141642068816801F073
:100F80000701062903D0016841F00101016000203A
:100F900010BD00000000014000040140FEE7FEE734
:100FA000704770477047FFF779BB00001048016831
:100FB00041F4700101600F48016841F001010160D6
:100FC0000C4A00210832116002680B4B1A40026083
:100FD000031D0A4A1A60026822F480220260054852
:100FE0000C300160024958068039086070470000E3
:100FF00088ED00E000380240FFFFF6FE10300024CC
:10100000F0B50268254C264D264E274F274B4FF052
:10101000804CA04209D0604507D0A84205D0B0421C
:1010200003D0B84201D0984204D122F0700E4A6831
:1010300042EA0E02A0421BD0604519D0A84217D048
:10104000B04215D0B84213D0984211D0184DA842E2
:101050000ED0184DA8420BD0174DA84208D0174DFE
:10106000A84205D0164DA84202D0164DA84203D181
:1010700022F44075CA682A434D6922F080022A434F
:1010800002608A68C2620A688262A04201D0984205
:1010900001D10969016301214161F0BD00000140F6
:1010A0000004004000080040000C00400004014023
:1010B0000040014000440140004801400018004049
:1010C000001C00400020004010B501F01F0301216A
:1010D000046A99408C430462016A9A401143016298
:1010E00010BD10B5846842EA032224F47F440A4309
:1010F0002243826010BD0000F0B5026A22F01002A7
:101100000262026A436884690D6824F4E64444EA92
:1011100005248D6822F0200242EA05120F4D104E80
:10112000A84201D0B04206D1CF6822F0800242EA44
:10113000071222F04002A84201D0B04207D14D6907
:1011400023F4406343EA85038D6943EA85034360E2
:101150008461496881630262F0BD000000000140C3
:1011600000040140FEE7000010B592B0302168464F
:10117000FFF75EF814210CA8FFF75AF81448002472
:10118000016841F080510160006800F080501190CA
:101190001048016841F4804101600068069400F441
:1011A00080401190022000900120039010200490B4
:1011B0006846FFF7C9FB0F20CDE90C040E940F948D
:1011C00000210CA81094FFF7F5FA12B010BD000032
:1011D00040380240007000401FB501220A216846D5
:1011E00000F062F90E4E4FF47A744FF4804564219A
:1011F000684600F057F9684600F03AF92046FFF7D4
:1012000051F90A21684600F04DF9684600F030F9BE
:101210002046FFF747F929463046FFF72DFAE6E763
:101220000010024010B58EB0002407940894099471
:101230000A940B941C2168460C94FEF7F9FF1E4893
:101240004FF080410160A021C0E901144FF4FA6120
:10125000C0E903148461FFF73AFD4FF48050079012
:1012600007A91548FFF760FD1348FFF759FE0B94D7
:101270000BA911480C94FFF709FD60200090642031
:10128000CDE90104002269460B480494FFF7E0FD14
:10129000042269460848FFF7DBFD08226946064834
:1012A000FFF7D6FD0C2269460348FFF7D1FD02483F
:1012B000FFF7A6FD0EB010BD14000020F0B5026AC5
:1012C00022F001020262036A42688469124E24F02D
:1012D00073050C682C4323F002058B682B430D4DDE
:1012E000A84201D0B04205D123F00807CB683B43A8
:1012F00023F00403A84201D0B04205D14D6922F485
:10130000407215438A692A43426084614968416397
:101310000362F0BD0000014000040140F0B5026A24
:1013200022F480720262026A4368C46922F4007285
:1013300024F073050C68124E2C438D6842EA052296
:101340000E4DA84201D0B04206D1CF6822F400620F
:1013500042EA072222F48062A84201D0B04207D1BB
:101360004D6923F4405343EA05138D6943EA05139D
:101370004360C4614968C1630262F0BD000001407E
:101380000004014030B5026A22F480520262046A0D
:101390004268C3690D6823F4E64343EA05238D6878
:1013A00024F4005444EA0534084DA84202D0084D04
:1013B000A84204D14D6922F4804242EA851242607B
:1013C000C36149680164046230BD0000000001404F
:1013D00000040140826822F070020A4342F00701D3
:1013E0008160704710B5036A046A24F00104046246
:1013F000846924F0F00444EA021423F00A020A4348
:101400008461026210BD10B5036A23F01003036209
:101410008369046A23F4704343EA023224F0A00390
:1014200043EA01118261016210BD0907090E00281B
:1014300004DB00F1E02080F80014704700F00F009A
:1014400000F1E02080F8141D7047000010B5084638
:10145000FEF768FF9FED041B53EC112BFEF7F3FE24
:10146000BDE81040FEF76FBFCDCCCCCCCCCCEC3F70
:1014700010B504464168FFF7E9FF0949E26832B157
:10148000042A07D00968082A07D0086410BD096833
:10149000486310BD0968886310BDC86310BD0000B3
:1014A000140000204160704710B504460160C4E993
:1014B0000112012A09D0022A09D0032A0ED0042AD7
:1014C0000ED0084901200860FEE7002000E004205B
:1014D000E0602046FFF7CCFF204610BD0820F7E76C
:1014E0000C20F5E70000002002E008C8121F08C128
:1014F000002AFAD170477047002001E001C1121F95
:10150000002AFBD17047000086B0FFF7CFF8FFF745
:101510002BFE1E4C0025206840F001002060206852
:1015200000F001000090FFF77DFE00211848FFF752
:1015300013FD04211648FFF70FFD08211448FFF79B
:101540000BFD0C211248FFF707FD14216846FEF73A
:101550006FFE206840F01000206020680D4E00F003
:1015600010004FF480440590002221463046FFF7DA
:101570008AF801200094CDE90105694630460395BB
:10158000FEF7A2FFFFF728FEFEE70000303802401A
:1015900014000020001002400000000000000000C5
:1015A0000102030406070809C8150008000000200E
:1015B00014000000E8140008DC15000814000020E6
:1015C00044040000F81400080000000001000000BE
:0C15D00010000000000000000024F400E7
:040000050800018965
:00000001FF
